:100000000C9461000C947E000C947E000C947E0095
:100010000C947E000C947E000C947E000C947E0068
:100020000C947E000C947E000C947E000C947E0058
:100030000C947E000C947E000C947E000C947E0048
:100040000C9460010C947E000C947E000C947E0055
:100050000C947E000C947E000C947E000C947E0028
:100060000C947E000C947E00000000002400270009
:100070002A000000000023002600290000000000E4
:10008000250028002B0004040404040404040202D4
:100090000202020203030303030301020408102007
:1000A0004080010204081020010204081020000012
:1000B0000008000201000003040700000000000027
:1000C000000011241FBECFEFD8E0DEBFCDBF21E07E
:1000D000A4E0B1E001C01D92AF30B207E1F711E03A
:1000E000A0E0B1E0ECE4F6E002C005900D92A4308F
:1000F000B107D9F70E94AA010C9424030C940000C4
:10010000833081F028F4813099F08230A1F0089595
:100110008730A9F08830B9F08430D1F48091800024
:100120008F7D03C0809180008F7780938000089539
:1001300084B58F7702C084B58F7D84BD089580918A
:10014000B0008F7703C08091B0008F7D8093B000A6
:1001500008951F93CF93DF93E3EBF0E09491EFE9E1
:10016000F0E0D491EBE8F0E0C491CC23D9F0182F63
:10017000992319F0892F0E948000EC2FF0E0EE0FF8
:10018000FF1FE458FF4FA591B4918FB7F894111158
:1001900005C09C91ED2FE095E92302C0EC91ED2B79
:1001A000EC938FBFDF91CF911F910895CF93DF9391
:1001B000282F30E0F901E255FF4F8491F901E6560E
:1001C000FF4FD491F901EA57FF4FC491CC2391F02E
:1001D00081110E948000EC2FF0E0EE0FFF1FEE581F
:1001E000FF4FA591B491EC91ED2381E090E021F4D3
:1001F00080E002C080E090E0DF91CF910895CF933E
:10020000DF9390E0FC01E656FF4F2491FC01EA5792
:10021000FF4F8491882361F190E0880F991FFC01C2
:10022000E859FF4FC591D491FC01E458FF4FA591C7
:10023000B491611109C09FB7F894888120958223F9
:100240008883EC912E230BC0623061F49FB7F89441
:100250003881822F809583238883EC912E2B2C93D9
:100260009FBF06C08FB7F894E8812E2B28838FBFDD
:10027000DF91CF9108953FB7F89480910901909153
:100280000A01A0910B01B0910C0126B5A89B05C0F5
:100290002F3F19F00196A11DB11D3FBFBA2FA92F05
:1002A000982F8827820F911DA11DB11DBC01CD0182
:1002B00042E0660F771F881F991F4A95D1F708956E
:1002C0001F920F920FB60F9211242F933F938F938B
:1002D0009F93AF93BF938091050190910601A091E8
:1002E0000701B09108013091040123E0230F2D375D
:1002F00020F40196A11DB11D05C026E8230F02962A
:10030000A11DB11D20930401809305019093060166
:10031000A0930701B09308018091090190910A010F
:10032000A0910B01B0910C010196A11DB11D80930C
:10033000090190930A01A0930B01B0930C01BF91A6
:10034000AF919F918F913F912F910F900FBE0F9082
:100350001F901895789484B5826084BD84B58160BF
:1003600084BD85B5826085BD85B5816085BD809180
:100370006E00816080936E001092810080918100F8
:1003800082608093810080918100816080938100F0
:10039000809180008160809380008091B1008460B2
:1003A0008093B1008091B00081608093B000809113
:1003B0007A00846080937A0080917A0082608093D2
:1003C0007A0080917A00816080937A0080917A002F
:1003D000806880937A001092C10060E08AE00E94F9
:1003E000FF0060E089E00E94FF0060E08EE00E9474
:1003F000FF0061E085E00E94FF0044244A9493E0FE
:10040000592E612C712CC3EBD0E000E010E020E409
:10041000322E30927C0080917A00806480937A0042
:1004200080917A0086FDFCCF209178008091790040
:1004300030E0382BA1E0BFEF0E94C502A30192017A
:100440000E94D40269017A018FEFC80ED11CE11C11
:10045000F11C5601D0920E01C0920D0189E00E945C
:10046000D600892B09F080C061E085E00E94FF0082
:10047000C114D104E104F10411F480E007C0EFEFEE
:10048000CE16D104E104F10421F481E00E94A90018
:1004900043C0FE0184918330F9F048F48130B9F013
:1004A0008230A1F584B5806284BDC8BC35C0873078
:1004B000E9F0883019F1843049F58091800080623C
:1004C00080938000D0928B00C0928A0025C084B5B2
:1004D000806884BDC7BC20C0809180008068809304
:1004E0008000D0928900C092880016C08091B00030
:1004F00080688093B000C092B3000EC08091B000BD
:1005000080628093B000C092B40006C0F0E8AF16DD
:10051000B1040CF0BACFB1CF0E943B014B015C019A
:1005200080EDC82E87E0D82EE12CF12C0E943B01F3
:10053000DC01CB0188199909AA09BB09883E9340BF
:10054000A105B10558F021E0C21AD108E108F1086F
:1005500088EE880E83E0981EA11CB11CC114D10442
:10056000E104F10419F70AC08AE00E94D600892B41
:1005700011F081E001C080E00E94A9000115110581
:1005800009F447CF0E94000044CF0E941503332393
:1005900012F48A1B9B0B0C94CF020E941503B7FF29
:1005A0000895821B930B0895052E97FB1EF400946B
:1005B0000E94EB0257FD07D00E94F30207FC03D014
:1005C0004EF40C94EB0250954095309521953F4F99
:1005D0004F4F5F4F089590958095709561957F4F2F
:1005E0008F4F9F4F0895A1E21A2EAA1BBB1BFD013E
:1005F0000DC0AA1FBB1FEE1FFF1FA217B307E40702
:10060000F50720F0A21BB30BE40BF50B661F771F59
:10061000881F991F1A9469F7609570958095909539
:100620009B01AC01BD01CF010895A29FB001B39F12
:10063000C001A39F700D811D1124911DB29F700DEB
:0C064000811D1124911D0895F894FFCF36
:04064C0001000000A9
:107E0000112484B714BE81FFF0D085E080938100F7
:107E100082E08093C00088E18093C10086E0809377
:107E2000C20080E18093C4008EE0C9D0259A86E02C
:107E300020E33CEF91E0309385002093840096BBD3
:107E4000B09BFECF1D9AA8958150A9F7CC24DD24C4
:107E500088248394B5E0AB2EA1E19A2EF3E0BF2EE7
:107E6000A2D0813461F49FD0082FAFD0023811F036
:107E7000013811F484E001C083E08DD089C08234E0
:107E800011F484E103C0853419F485E0A6D080C0E4
:107E9000853579F488D0E82EFF2485D0082F10E0AE
:107EA000102F00270E291F29000F111F8ED06801E7
:107EB0006FC0863521F484E090D080E0DECF843638
:107EC00009F040C070D06FD0082F6DD080E0C81688
:107ED00080E7D80618F4F601B7BEE895C0E0D1E017
:107EE00062D089930C17E1F7F0E0CF16F0E7DF06D8
:107EF00018F0F601B7BEE89568D007B600FCFDCFD4
:107F0000A601A0E0B1E02C9130E011968C91119780
:107F100090E0982F8827822B932B1296FA010C0160
:107F200087BEE89511244E5F5F4FF1E0A038BF0790
:107F300051F7F601A7BEE89507B600FCFDCF97BE46
:107F4000E89526C08437B1F42ED02DD0F82E2BD052
:107F50003CD0F601EF2C8F010F5F1F4F84911BD097
:107F6000EA94F801C1F70894C11CD11CFA94CF0C13
:107F7000D11C0EC0853739F428D08EE10CD085E9AC
:107F80000AD08FE07ACF813511F488E018D01DD067
:107F900080E101D065CF982F8091C00085FFFCCF94
:107FA0009093C60008958091C00087FFFCCF809118
:107FB000C00084FD01C0A8958091C6000895E0E648
:107FC000F0E098E1908380830895EDDF803219F02E
:107FD00088E0F5DFFFCF84E1DECF1F93182FE3DFCA
:107FE0001150E9F7F2DF1F91089580E0E8DFEE27F6
:047FF000FF270994CA
:027FFE00040479
:0400000300007E007B
:00000001FF
